:020000040800F2
:1000000000800120C10500087D1100088111000851
:1000100085110008891100088D11000800000000FA
:100020000000000000000000000000009111000826
:100030009511000800000000991100089D110008AA
:100040001106000811060008110600081106000834
:100050001106000811060008110600081106000824
:100060001106000811060008110600081106000814
:100070001106000811060008110600081106000804
:100080001106000811060008110600080000000013
:100090000000000000000000000000001106000841
:1000A0001106000811060008A51100081106000835
:1000B00011060008110600081106000811060008C4
:1000C00011060008110600081106000811060008B4
:1000D0001106000811060008B51100080000000014
:1000E000C5110008110600081106000800000000F4
:1000F00000000000000000000000000011060008E1
:100100000000000011060008110600081106000892
:1001100000000000000000000000000000000000DF
:100120001106000811060008110600081106000853
:1001300011060008000000000000000000000000A0
:100140000000000000000000000000001106000890
:100150001106000811060008110600081106000823
:100160001106000811060008000000000000000051
:10017000000000000000000000000000000000007F
:100180000000000011060008000000000000000050
:04019000110600084C
:1001A00010B5054C237833B9044B13B10448AFF3B1
:1001B00000800123237010BD7400002000000000A7
:1001C000D4330008084B10B51BB108490848AFF3F9
:1001D00000800848036803B910BD074B002BFBD013
:1001E000BDE81040184700BF000000007800002064
:1001F000D4330008740000200000000053B94AB94D
:10020000002908BF00281CBF4FF0FF314FF0FF301E
:1002100000F07EB9ADF1080C6DE904CE00F006F8EF
:10022000DDF804E0DDE9022304B070472DE9F04772
:100230008C460E460446089D002B50D18A42174634
:100240006CD9B2FA82FEBEF1000F0BD0CEF12004C1
:1002500020FA04F401FA0EF644EA060C02FA0EF74C
:1002600000FA0EF44FEA1749220CBCFBF9F01FFA12
:1002700087F809FB10C642EA064600FB08F3B342C2
:1002800009D9F61900F1FF3280F02281B34240F221
:100290001F8102383E44F61AA2B2B6FBF9F309FBFD
:1002A000136642EA064403FB08F8A04509D9E4199D
:1002B00003F1FF3280F00A81A04540F20781023B42
:1002C0003C44C8EB040443EA00400021002D62D006
:1002D00024FA0EF400232C606B60BDE8F0878B429B
:1002E00007D9002D55D0002185E841000846BDE81A
:1002F000F087B3FA83F1002940F09080B34202D333
:10030000824200F2F880841A66EB03060120B446AC
:10031000002D40D085E81010BDE8F08712B9012704
:10032000B7FBF2F7B7FA87FEBEF1000F35D1F31B2A
:100330004FEA17481FFA87FC0121B3FBF8F0220CA3
:1003400008FB103642EA06460CFB00F3B34207D91D
:10035000F61900F1FF3202D2B34200F2CE8010460D
:10036000F61AA2B2B6FBF8F308FB136642EA06449B
:100370000CFB03FCA44507D9E41903F1FF3202D2B8
:10038000A44500F2B5801346CCEB040443EA0040D8
:100390009CE729462846BDE8F087CEF1200106FA01
:1003A0000EF307FA0EF720FA01F94FEA1748CE408C
:1003B00049EA0309B6FBF8FA4FEA194408FB1A6642
:1003C0001FFA87FC44EA06430AFB0CF29A4200FA41
:1003D0000EF40AD9DB190AF1FF3180F087809A42C6
:1003E00040F28480AAF1020A3B449B1A1FFA89F961
:1003F000B3FBF8F108FB113349EA034301FB0CF6A8
:100400009E4207D9DB1901F1FF326BD29E4269D9B6
:1004100002393B449B1B41EA0A418EE7C1F1200EA1
:1004200022FA0EF48B40234320FA0EF706FA01F469
:100430004FEA134C26FA0EF63C43B6FBFCF9270CA8
:100440000CFB19661FFA83F847EA064609FB08F712
:10045000B74202FA01F200FA01FA08D9F61809F1D6
:10046000FF3041D2B7423FD9A9F102091E44F61B21
:10047000A0B2B6FBFCF40CFB146640EA064704FB92
:1004800008F8B84507D9FF1804F1FF3028D2B8455D
:1004900026D9023C1F4444EA0940C8EB0707A0FBE9
:1004A00002894F4544464E4614D329D065B3BAEB72
:1004B000040367EB060707FA0EFECB40CF404EEA77
:1004C000030385E888000021BDE8F0871346F8E6BD
:1004D0001046E0E6B8EB020469EB03060138E5E7F5
:1004E0000446D8E7114695E78146C0E78A467CE78F
:1004F000023B3C4448E708460AE702383E442FE7FF
:10050000C245E7D33E46D1E72946BDE8F08700BFA4
:10051000704700BF00000000000000000000000065
:1005200001F0FF01102A2BDB10F0070F08D010F8A4
:10053000013B013A8B422DD010F0070F42B3F6D1A8
:10054000F0B441EA012141EA014122F007047FF0C1
:1005500000070023F0E80256083C85EA010586EA18
:10056000010685FA47F5A3FA87F586FA47F6A5FA54
:1005700087F68EB9EED1F0BC01F0FF0102F0070260
:1005800032B110F8013B013A83EA010313B1F8D10B
:100590000020704701387047002D06BF35460338EC
:1005A000073815F0010F07D1013015F4807F02BF25
:1005B000013015F4C03F0130F0BC0138704700BF76
:1005C000DFF834D0002103E00C4B5B58435004317A
:1005D0000B480C4B42189A42F6D30B4A02E0002318
:1005E00042F8043B094B9A42F9D300F0F1FD02F0C6
:1005F000A1FA00F085FC70470080012064350008F6
:10060000000000207400002074000020F40100208D
:10061000FEE7000008B50B4B1B6813B90A4A094BEB
:100620001A60084B1A68131869468B4206D902F003
:100630007BFA0C2303604FF0FF3008BD01490B60CB
:10064000104608BD90000020F801002030B58BB0A6
:100650000024059406940794089409940194264B69
:100660001A6B42F004021A631A6B02F00402019240
:10067000019A02941A6B42F080021A631A6B02F01C
:1006800080020292029A03941A6B42F001021A63EA
:100690001A6B02F001020392039A04941A6B42F05F
:1006A00002021A631B6B03F002030493049B134DB5
:1006B00022462021284600F057FF4FF400530593AF
:1006C0000F4B0693079405A90E4800F06FFE2023F8
:1006D0000593012306930794089405A9284600F082
:1006E00065FE22462146282000F0F6FD282000F075
:1006F00025FE0BB030BD00BF0038024000000240B4
:10070000000031100008024008B50648064B03609F
:10071000002343608360C3600361836101F08EFE48
:1007200008BD00BF380100200048014008B5084856
:10073000084B03604FF4E133436000238360C360E0
:1007400003610C2242618361C36101F0C3FF08BDF4
:10075000AC0100200044004008B50948094B036083
:10076000094B436000238360C3604FF48042026101
:1007700043618361C361036201F060F808BD00BF9B
:10078000E000002000540040A0860100B0F5005FAA
:1007900039D108B54FF4005100F1804000F5F43034
:1007A00000F0DAFE48B900F06BFD174B186001222B
:1007B0002021164800F0D8FE08BD4FF4005114481F
:1007C00000F0CAFEF0B100222021104800F0CCFE5B
:1007D00000F056FD0C4B1B68C01AB0F5967F05D98A
:1007E0000C4A13785B000133137003E0094A137855
:1007F0005B00137000F044FD074B1860074B0122AB
:100800001A705A7008BD7047DC00002000000240DA
:100810000008024000000020340100209800002061
:10082000F0B58FB0294B9B78012B07D1274C322292
:100830000021201D02F0A4F90023A370244B1A7894
:100840000D2A21D0214BDB8E322B03D81F490B44BC
:100850001A7114E001AC1F4D0FCD0FC40FCD0FC4A2
:100860002B682360232201A91B4801F065FF174C68
:1008700032220021201D02F083F90023E386134A6F
:10088000D38E0133D38619E0104BD98E134A1170E1
:100890000022DA8601229A7083F838201F1D104D3D
:1008A00003F134043E460FCE28606960AA60EB6015
:1008B00037461035A642F5D133882B8001220449F2
:1008C000054801F05DFF0FB0F0BD00BF98000020AB
:1008D000AB01002004340008AC010020AA01002074
:1008E0007801002030B595B03022002108A802F030
:1008F00047F9002403940494059406940794019402
:100900001C4B1A6C42F080521A641B6C03F080532B
:100910000193019B0294184A136823F4404343F463
:1009200000431360136803F440430293029B0123C6
:1009300008934FF48033099302250E954FF48003FA
:100940000F930423109348231193129503231393B9
:1009500008A801F005F90F230393049505944FF4BB
:10096000805306930794294603A801F06BFB15B04A
:1009700030BD00BF003802400070004002387628C9
:1009800000F21581DFE810F08300B0008F007700DF
:100990009E009B00AD00B300AA00B9008000950046
:1009A0008900A1008C00B600860013019800130195
:1009B000A40092007A00BC007D00BF00C200A70026
:1009C00013011301D100CE001301CB001301130159
:1009D0001301C800130113010101130113011301D5
:1009E0001301C500D4000D0104011301130113010B
:1009F00007011301D700130113011301DA001301DA
:100A0000DD00E000130113011301130113011301B1
:100A1000130113011301130113011301F800EF0077
:100A20001301130113011301EC0013011301E3007F
:100A30001301130113011301100113011301130119
:100A4000E90013011301FE00130113011301130147
:100A50001301130113011301F500FB0013010A0137
:100A600013011301130113011301E6001301130114
:100A700013011301F2004F4880B270474E4880B214
:100A800070474E4880B270474D4880B270474D481D
:100A900080B270474C4880B270474C4880B2704773
:100AA0004B4880B270474B4880B270474A4880B28A
:100AB00070474A4880B27047494880B270474948F9
:100AC00080B27047484880B27047484880B270474B
:100AD000474880B27047474880B27047464880B266
:100AE0007047464880B27047454880B270474548D5
:100AF00080B27047444880B27047444880B2704723
:100B0000434880B27047434880B27047424880B241
:100B10007047424880B27047414880B270474148B0
:100B200080B27047404880B27047404880B27047FA
:100B30003F4880B270473F4880B270473E4880B21D
:100B400070473E4880B270473D4880B270473D488C
:100B500080B270473C4880B270473C4880B27047D2
:100B60003B4880B270473B4880B270473A4880B2F9
:100B700070473A4880B27047394880B27047394868
:100B800080B27047384880B27047384880B27047AA
:100B9000374880B27047374880B27047364880B2D5
:100BA0007047364880B27047354880B27047354844
:100BB00080B27047283400082C3400083034000814
:100BC00034340008383400083C340008403400084D
:100BD00044340008483400084C34000850340008FD
:100BE00054340008583400085C34000860340008AD
:100BF00064340008683400086C340008703400085D
:100C000074340008783400087C340008803400080C
:100C100084340008883400088C34000890340008BC
:100C200094340008983400089C340008A03400086C
:100C3000A4340008A8340008AC340008B03400081C
:100C4000B4340008B8340008BC340008C0340008CC
:100C5000C4340008C8340008CC340008D03400087C
:100C6000D4340008D8340008DC340008E03400082C
:100C7000E4340008E8340008EC340008F0340008DC
:100C8000F4340008F834000810B58EB0044601466C
:100C900001A801F07DFF82B201A9114801F04CFDCD
:100CA000104A92F839300133DBB282F83930112B17
:100CB00004D10021012001F0E3FE0BE0202B09D933
:100CC00001F0D0FE0021084601F0DAFE0022054BBB
:100CD00083F83920204601F01DFF0EB010BD00BF83
:100CE000AC010020980000202138592800F29380A0
:100CF000DFE800F081779191919175898B918573EF
:100D00008371876F6D6B69676563615F5D7B7D91E3
:100D10008D917F8F919191919191919191919191DB
:100D200091919191919191919191919191919191B3
:100D3000919179912D932F31333537393B3D3F4197
:100D4000434547494B4D4F5153935557595B0620E7
:100D50007047152070470920704702207047142003
:100D600070470B20704710207047042070471E20EA
:100D700070470D20704712207047072070470520EC
:100D800070470F207047162070471B2070470A20BD
:100D9000704708207047032070470C2070470E20D2
:100DA0007047192070471B207047132070473E2062
:100DB00070473C2070473820704730207047202013
:100DC000704730207047382070473C2070473E20E5
:100DD00070473F2070476A20704773207047522049
:100DE0007047522070476C2070474720704755204D
:100DF00070474C20704775207047612070472A204B
:100E00007047292070472D2070476D207047312092
:100E1000704756207047012070471120704700BF6F
:100E200010F0010308D10FE001229A400240114462
:100E3000C9B20133DBB201E001230021072BF3D952
:100E400009B9012300E000231846704770B5064633
:100E500000242DE046FA04F5E8B2FFF7E1FF48BBB5
:100E600015F0010F0FD0144D01222021284600F06B
:100E70007BFB4FF4966000F009FA002220212846FF
:100E800000F072FB0EE00C4D01222021284600F0FC
:100E90006BFB4FF4967000F0F9F9002220212846F0
:100EA00000F062FB4FF4967000F0F0F90134E4B208
:100EB000072CCFD970BD00BF0000024070B50646B8
:100EC0000D460A4601460D4801F036FC002411E0AB
:100ED000305D202804D140F6340000F0D7F907E057
:100EE000FFF702FFFFF7B2FF4FF4966000F0CEF974
:100EF0000134E4B2AC42EBD370BD00BFAC010020C2
:100F000008B500F097F9FFF7EDFCFFF79FFBFFF73F
:100F1000FBFBFFF70BFCFFF71FFC01F0BFFD3048A8
:100F200001F06AF901222F492F4801F029FC2F48CE
:100F300001F0F0FD4FF47A7000F0A8F901F092FD95
:100F40000021084601F09CFD4FF40051284800F0B4
:100F500003FB002835D000F093F9264B1B68C01A1C
:100F6000254B5B7840F68C22012B14BF0023012314
:100F7000904298BF00234BB12048FFF785FE012225
:100F80001F4B1A7000221C4B5A701AE000F078F9BF
:100F9000184B1B68C01A184B1B78012B14BF002379
:100FA0000123B0F5167F98BF002353B1144C20786D
:100FB000FFF7E4FCFFF768FE0123237000220E4BCD
:100FC0001A700D4B93F83830012BBDD10D4B1978A9
:100FD0000D48FFF773FF0022074B83F83820B3E773
:100FE00038010020AB010020AC01002008350008CA
:100FF0000008024034010020980000201C35000841
:1010000000000020AA0100207801002000B583B074
:10101000002100910C4B5A6C42F480425A645A6C85
:1010200002F480420092009A01911A6C42F08052C0
:101030001A641B6C03F080530193019B042000F0A1
:1010400039F903B05DF804FB0038024030B589B0CF
:101050000023039304930593069307930268154BAB
:101060009A4224D100250195134C236B43F00203CF
:101070002363236B03F002030193019B4FF440733E
:10108000039312230493012305930323069304235C
:10109000079303A9094800F089F90295236C43F4EA
:1010A00000132364236C03F400130293029B09B022
:1010B00030BD00BF00540040003802400004024030
:1010C00002680E4B9A4218D100B583B000210191FD
:1010D00003F570435A6C42F480225A645B6C03F44B
:1010E00080230193019B0A461A2000F0F5F81A208C
:1010F00000F024F903B05DF804FB7047004801409C
:1011000010B588B0002303930493059306930793C7
:101110000268184B9A422AD10024019403F5FA334D
:101120001A6C42F400321A641A6C02F40032019212
:10113000019A02941A6B42F001021A631B6B03F0CE
:1011400001030293029B0C230393022304930323C2
:1011500006930723079303A9074800F027F92246BF
:101160002146262000F0B8F8262000F0E7F808B065
:1011700010BD00BF0044004000000240704700BFA7
:10118000FEE700BFFEE700BFFEE700BFFEE700BFCF
:10119000704700BF704700BF704700BF08B500F040
:1011A00063F808BD08B5024801F042F808BD00BF69
:1011B0003801002008B5024801F072FB08BD00BFED
:1011C000AC01002008B54FF4005000F0D3F908BD81
:1011D000054BD3F8882042F47002C3F888204FF002
:1011E00000629A60704700BF00ED00E010B5044651
:1011F0000E4B18784FF47A73B3FBF0F30C4A106877
:10120000B0FBF3F000F0A8F858B90F2C0BD800226F
:1012100021464FF0FF3000F05FF8044B5C60002087
:1012200010BD012010BD012010BD00BF080000202E
:101230000400002008B50B4B1A6842F400721A60D3
:101240001A6842F480621A601A6842F480721A6066
:10125000032000F02FF80020FFF7C8FFFFF7D6FEAD
:10126000002008BD003C0240034A13680349097886
:101270000B441360704700BFEC0100200800002001
:10128000014B1868704700BFEC01002038B50446D8
:10129000FFF7F6FF0546B4F1FF3F02D0044B1B7881
:1012A0001C44FFF7EDFF401B8442FAD838BD00BF55
:1012B00008000020074AD36823F4E0631B041B0CDA
:1012C000000200F4E060184340F0BF6040F40030DA
:1012D000D060704700ED00E030B4164BDB68C3F31C
:1012E0000223C3F10704042C28BF04241D1D062D6E
:1012F00001D9DD1E00E00025012303FA04F4013CBE
:101300002140A940AB40013B1A400A43002808DBBA
:101310001201D2B200F1604000F5614080F8002374
:1013200005E000F00F001201D2B2034B1A5430BC9A
:10133000704700BF00ED00E014ED00E0002808DB7E
:10134000420900F01F00012303FA00F0014B43F8AB
:101350002200704700E100E00138B0F1807F0AD23E
:10136000064B5860F021064A82F82310002098604E
:1013700007221A6070470120704700BF10E000E0AC
:1013800000ED00E090F83530DBB2022B03D0802373
:10139000436501207047052380F8353002681368E3
:1013A00023F0010313600020704700BF2DE9F041D6
:1013B00082B00023C1E001229A400C6802EA0405D1
:1013C000AA4240F0B9804C68661E012E03D9112C48
:1013D00001D0122C15D187684FEA430E032606FA76
:1013E0000EF627EA0606CC6804FA0EF4344384604D
:1013F000446824EA02024C68C4F300149C4022436F
:101400004260C6685F000324BC40E44306EA04026D
:101410008E68BE401643C6604A68022A01D0122A6E
:1014200013D1DE08083650F8268003F007024FEA91
:10143000820E0F2202FA0EF228EA020C0A6902FA60
:101440000EF24CEA020240F82620066826404A685E
:1014500002F0030404FA07F2324302604A6812F011
:10146000805F69D000220192374A546C44F4804472
:101470005464526C02F480420192019A9E08B41C9A
:10148000324A52F8244003F0030292000F2797409B
:1014900024EA07072E4CA04211D004F58064A04234
:1014A0000FD004F58064A0420DD004F58064A04202
:1014B0000BD004F58064A04209D1042408E0002484
:1014C00006E0012404E0022402E0032400E00724F3
:1014D00004FA02F23A4302361C4C44F826201D4A14
:1014E0001468EA4304EA02064F6817F4803F01D00B
:1014F00045EA0406174C2660646802EA04064F6851
:1015000017F4003F01D045EA0406124C6660A46857
:1015100002EA04064F6817F4801F01D045EA04066A
:101520000C4CA660E46822404E6816F4001F01D0FF
:1015300045EA0402074CE26001330F2B7FF63BAF14
:1015400002B0BDE8F08100BF003802400038014021
:1015500000000240003C01400369194201D0012013
:1015600070470020704700BF0AB1816170470904CD
:101570008161704708B5044B5B69034203D0024B9D
:101580005861FFF703F908BD003C014003685A6940
:1015900012F4806F11D06FF480625A6100230363EC
:1015A000202280F83D2080F83E30026C42F0040298
:1015B000026480F83C30012070470020704700BF73
:1015C000F8B506460C4617461D4618E0B5F1FF3F34
:1015D00015D0FFF755FE069BC01A854200D375B99A
:1015E00000233363202286F83D2086F83E30326C9B
:1015F00042F02002326486F83C300120F8BDC4F38A
:101600000743012B08D133685B6924EA03039BB2CB
:10161000B3FA83F35B0907E033689B6924EA0303A9
:101620009BB2B3FA83F35B09BB42CFD00020F8BD75
:10163000F8B504460D4616461F4633E023685A693E
:1016400012F4806F16D01A6842F400721A60236890
:101650006FF480625A6100232363202284F83D20C6
:1016600084F83E30226C42F00402226484F83C305C
:101670000120F8BDB6F1FF3F14D0FFF701FEC01BFB
:10168000864200D376B900232363202284F83D20CC
:1016900084F83E30226C42F02002226484F83C3010
:1016A0000120F8BDC5F30743012B08D123685B690E
:1016B00025EA03039BB2003318BF012307E0236828
:1016C0009B6925EA03039BB2003318BF0123002B5B
:1016D000B4D10020F8BD00BFF0B583B004460F467A
:1016E00015461E46C36A082B04D0012B02D013F501
:1016F000803F05D12268136843F48073136007E0CC
:10170000036B122B04D10268136843F480731360D7
:1017100000962B4600224FF001112046FFF750FFA4
:1017200048B123681B6813F4807F28D04FF40073FE
:101730002364032326E02369B3F5804F04D1236893
:1017400007F0FE071F6110E02268FB1103F006039B
:1017500043F0F003136133462A460C492046FFF755
:1017600067FF70B92368FFB21F6133462A460849F4
:101770002046FFF75DFF034620B1012302E003236B
:1017800000E00123184603B0F0BD00BF08000100CF
:101790000200010070B504460D4616461BE02046C7
:1017A000FFF7F4FEF0B9B5F1FF3F14D0FFF768FD85
:1017B000801B854200D375B900232363202284F85F
:1017C0003D2084F83E30226C42F02002226484F8EE
:1017D0003C30012070BD23685B6913F0800FDED0C0
:1017E000002070BD012070BD70B504460D46164640
:1017F0001BE02046FFF7CAFEF0B9B5F1FF3F14D059
:10180000FFF73EFD801B854200D375B9002323639B
:10181000202284F83D2084F83E30226C42F02002E1
:10182000226484F83C30012070BD23685B6913F0AA
:10183000040FDED0002070BD012070BD002800F034
:10184000C980F8B5044690F83D3013F0FF0F04D17D
:10185000002380F83C30FFF7F9FB242384F83D3067
:101860002268136823F0010313602268136843F4AD
:10187000004313602268136823F40043136000F0F0
:101880009BFC6268554B9A4205D8554B98428CBFD9
:101890000023012304E0534B98428CBF0023012313
:1018A000002B40F09980504BA3FB00239B0C216838
:1018B0004A6822F03F021A434A6025682A6A22F0E9
:1018C0003F02666845498E4201D8013308E04FF473
:1018D000967101FB03F34549A1FB03139B090133F7
:1018E00013432B622568E96921F44F4121F0FF0180
:1018F00066683A4B9E420AD8431E7000B3FBF0F074
:101900000130C0F30B00042838BF042035E0A36881
:101910005BB9421E06EB4607B2FBF7F20132C2F397
:101920000B02B2FA82F252090CE0421E06EB860765
:1019300007EB8707B2FBF7F20132C2F30B02B2FAF0
:1019400082F25209C2B953B9421E06EB4600B2FBFD
:10195000F0F00130C0F30B0343F400400DE0421EF1
:1019600006EB860606EB8606B2FBF6F30133C3F3FD
:101970000B0343F4404000E001200843E861216884
:101980000B6823F0C002E069236A034313430B6032
:1019900021688B6823F4034222F0FF022069E36888
:1019A000034313438B602168CB6823F0FF02606917
:1019B000A36903431343CB602268136843F0010318
:1019C000136000202064202384F83D30206384F8D5
:1019D0003E00F8BD012070470120F8BDA08601003F
:1019E0007F841E00FF083D0083DE1B43D34D621041
:1019F0002DE9F04184B004460D4690461F46FFF79E
:101A00003FFC94F83D30DBB2202B40F09680064638
:101A100000901923012250492046FFF7D1FD0028EC
:101A200040F08D8094F83C30012B00F08A80012337
:101A300084F83C3023681A6812F0010F03D11A6849
:101A400042F001021A602268136823F400631360F5
:101A5000212384F83D30102384F83E300023236492
:101A6000C4F824806785638D23853C4BE36233464D
:101A70000A9A29462046FFF72FFE0546002862D124
:101A80000023039323685A6903929B690393039B82
:101A900042E032460A992046FFF77CFE48B1236CAB
:101AA000042B52D12268136843F40073136001259C
:101AB0004EE02368626A12781A61616A4B1C6362A5
:101AC000638D9BB2013B9BB26385238D013B9BB22F
:101AD00023852268506910F0040F0DD063B14B7854
:101AE0001361636A01336362638D9BB2013B9BB2F6
:101AF0006385238D013B238532460A992046FFF7F3
:101B000073FE48B1236C042B21D12268136843F47F
:101B10000073136001251BE0238D002BB9D12268CF
:101B2000136843F400731360202384F83D300023CE
:101B300084F83E3084F83C300AE0022508E00225B3
:101B400006E0022504E0012502E0012500E0012570
:101B5000284604B0BDE8F081020010000000FFFF3D
:101B6000002800F0D78170B582B00446036813F0F6
:101B7000010F5AD0A04B9B6803F00C03042B0AD032
:101B80009D4B9B6803F00C03082B0DD19A4B5B68AF
:101B900013F4800F08D0984B1B6813F4003F44D017
:101BA0006368002B41D1B7E16368B3F5803F05D18D
:101BB000914A136843F48033136015E0B3F5A02F06
:101BC00009D18D4B1A6842F480221A601A6842F4D7
:101BD00080321A6008E0884B1A6822F480321A605A
:101BE0001A6822F480221A6063687BB1FFF748FB11
:101BF000054605E0FFF744FB401B642800F28E8198
:101C00007D4B1B6813F4003FF4D00EE0FFF738FB68
:101C1000054605E0FFF734FB401B642800F2808195
:101C2000754B1B6813F4003FF4D1236813F0020FC7
:101C300050D0714B9B6813F00C0F0AD06E4B9B6811
:101C400003F00C03082B16D16B4B5B6813F4800F69
:101C500011D1694B1B6813F0020F03D0E368012B0D
:101C600040F06081644A136823F0F803216943EA75
:101C7000C10313602EE0E368D3B101225F4B1A6009
:101C8000FFF7FEFA054605E0FFF7FAFA401B0228C7
:101C900000F24A81584B1B6813F0020FF4D0564AE9
:101CA000136823F0F803216943EAC103136011E0CC
:101CB0000022524B1A60FFF7E3FA054605E0FFF7F2
:101CC000DFFA401B022800F231814B4B1B6813F0F6
:101CD000020FF4D1236813F0080F26D0636993B183
:101CE0000122474B1A60FFF7CBFA054605E0FFF7E4
:101CF000C7FA401B022800F21B813F4B5B6F13F0B9
:101D0000020FF4D011E000223D4B1A60FFF7B8FA41
:101D1000054605E0FFF7B4FA401B022800F20A81ED
:101D2000354B5B6F13F0020FF4D1236813F0040FEF
:101D30007DD0314B1B6C13F0805F0DD100230193DC
:101D40002D4B1A6C42F080521A641B6C03F08053C6
:101D50000193019B012500E000252A4B1B6813F429
:101D6000807F13D1274A136843F480731360FFF711
:101D700087FA064605E0FFF783FA801B022800F287
:101D8000DB80204B1B6813F4807FF4D0A368012B09
:101D900005D1194A136F43F00103136714E0052BB3
:101DA00009D1154B1A6F42F004021A671A6F42F0FC
:101DB00001021A6708E0104B1A6F22F001021A673D
:101DC0001A6F22F004021A67A3688BB1FFF758FA62
:101DD000064607E0FFF754FA801B41F28833984229
:101DE00000F2AC80044B1B6F13F0020FF2D018E02E
:101DF000FFF746FA06460FE000380240000047426F
:101E0000800E474200700040FFF73AFA801B41F213
:101E10008833984200F29480554B1B6F13F0020FE9
:101E2000F2D125B1524A136C23F080531364A36995
:101E3000002B00F087804E4A926802F00C02082ABC
:101E400048D0022B33D100224A4B1A60FFF718FA10
:101E5000054604E0FFF714FA401B022874D8444BEF
:101E60001B6813F0007FF5D1E269236A1343626AAD
:101E700043EA8213A26A5208013A43EA0243E26A41
:101E800043EA02633A4A536001223A4B1A60FFF771
:101E9000F7F9044604E0FFF7F3F9001B022855D8D0
:101EA000334B1B6813F0007FF5D000205DE000226B
:101EB000304B1A60FFF7E4F9044604E0FFF7E0F95D
:101EC000001B022844D82A4B1B6813F0007FF5D171
:101ED00000204AE0012B3DD0254B5B6803F48001D4
:101EE000E269914238D103F03F02216A8A4235D13A
:101EF000616A47F6C0721A408A4231D103F4403217
:101F0000A16A8A422ED103F07063E26A93422BD019
:101F100001202AE001207047012026E0032024E070
:101F2000032022E0012020E003201EE003201CE02B
:101F300003201AE0032018E0032016E0032014E039
:101F4000032012E0002010E003200EE003200CE04C
:101F500003200AE0012008E0012006E0012004E05F
:101F6000012002E0012000E0002002B070BD00BFAF
:101F7000003802406000474238B52F4B9B6803F0A1
:101F80000C03042B55D0082B01D02C4838BD2A4B0C
:101F90005A6802F03F025B6813F4800F20D0264B92
:101FA0005B68C3F38813DC000025690141EAD46152
:101FB0006001041B61EB0505A90141EA9461A001E0
:101FC000001B61EB0501C01841F100014B0243EA1F
:101FD000D0534402204619460023FEF70FF91FE0B4
:101FE000154B5B68C3F38813DC000025690141EAE7
:101FF000D4616001041B61EB0505A90141EA94610C
:10200000A001001B61EB0501C01841F100018B022A
:1020100043EA90538402204619460023FEF7EEF867
:10202000054B5B68C3F3014301335B00B0FBF3F086
:1020300038BD034838BD00BF003802400024F4001A
:1020400000127A00002800F0988070B50446524BC8
:102050001B6803F00F038B4208D2CBB24E4A1370B9
:10206000136803F00F03994240F08980236813F04E
:10207000020F17D013F0040F04D0484A936843F4BA
:10208000E0539360236813F0080F04D0434A936829
:1020900043F4604393604148836823F0F002A368EF
:1020A000134383600D46236813F0010F2FD062683D
:1020B000012A05D1394B1B6813F4003F0ED160E0B3
:1020C000931E012B05D8354B1B6813F0007F05D1FB
:1020D00059E0324B1B6813F0020F56D02F498B6822
:1020E00023F0030313438B60FFF7CAF8064606E0AC
:1020F000FFF7C6F8801B41F28833984247D8274B38
:102100009B6803F00C036268B3EB820FF0D1224BA3
:102110001B6803F00F039D4207D2EAB21E4B1A70F0
:102120001B6803F00F039D4233D1236813F0040FA3
:1021300006D01A498B6823F4E052E36813438B609E
:10214000236813F0080F07D0144A936823F4604300
:10215000216943EAC1039360FFF70EFF0F4B9B68B1
:10216000C3F303130E4AD35CD8400E4B18600E4BDA
:102170001868FFF73BF8002070BD01207047012070
:1021800070BD012070BD012070BD012070BD032015
:1021900070BD012070BD00BF003C0240003802400D
:1021A000EC330008040000200C000020014B1868EC
:1021B000704700BF0400002008B5FFF7F7FF044B8D
:1021C0009B68C3F38223034AD35CD84008BD00BF99
:1021D00000380240FC33000808B5FFF7E7FF044B66
:1021E0009B68C3F34233034AD35CD84008BD00BFA9
:1021F00000380240FC3300080268D36843F0010352
:10220000D3600268936803F00703062B03D01368BA
:1022100043F0010313600020704700BF704700BF08
:10222000704700BF704700BF704700BF704700BFD6
:1022300010B5044603681A6912F0020F17D0DA6865
:1022400012F0020F13D06FF002021A61012303771C
:1022500003689B6913F0030F02D0FFF7E3FF04E06C
:10226000FFF7DEFF2046FFF7DFFF00232377236819
:102270001A6912F0040F19D0DA6812F0040F15D0A1
:102280006FF004021A610223237723689B6913F419
:10229000407F03D02046FFF7C5FF05E02046FFF74B
:1022A000BFFF2046FFF7C0FF0023237723681A698A
:1022B00012F0080F19D0DA6812F0080F15D06FF07D
:1022C00008021A61042323772368DB6913F0030FE4
:1022D00003D02046FFF7A6FF05E02046FFF7A0FF4A
:1022E0002046FFF7A1FF0023237723681A6912F025
:1022F000100F19D0DA6812F0100F15D06FF010021D
:102300001A61082323772368DB6913F4407F03D025
:102310002046FFF787FF05E02046FFF781FF2046B4
:10232000FFF782FF0023237723681A6912F0010F59
:1023300009D0DA6812F0010F05D06FF001021A61BE
:102340002046FFF76BFF23681A6912F0800F09D04F
:10235000DA6812F0800F05D06FF080021A61204613
:1023600000F08AF823681A6912F0400F09D0DA6881
:1023700012F0400F05D06FF040021A612046FFF7BF
:1023800055FF23681A6912F0200F09D0DA6812F09D
:10239000200F05D06FF020021A61204600F06AF885
:1023A00010BD00BF0368244A90420ED0B0F1804FA8
:1023B0000BD0A2F57C42904207D002F58062904299
:1023C00003D002F58062904203D123F070034A6883
:1023D0001343194A90421AD0B0F1804F17D0A2F59A
:1023E0007C42904213D002F5806290420FD002F5F9
:1023F000806290420BD002F59A32904207D002F5EB
:102400008062904203D002F58062904203D123F4AF
:102410004073CA68134323F080034A69134303607F
:102420008B68C3620B688362034B984201D10B69CE
:10243000036301234361704700000140B8B110B548
:10244000044690F83D3013F0FF0F04D1002380F8CC
:102450003C30FEF735FE022384F83D30211D206814
:10246000FFF7A0FF012384F83D30002010BD0120BC
:10247000704700BF704700BF704700BF0268D36855
:1024800023F49073D3600268536923F0010353610E
:10249000202380F83A30704790F83930DBB2212B96
:1024A0002BD18368B3F5805F0FD1036A02681B8864
:1024B000C3F30803536003691BB9036A0233036261
:1024C00009E0036A0133036205E00268036A591CEC
:1024D00001621B785360C38C9BB2013B9BB2C384E7
:1024E0006BB90268D36823F08003D3600268D368B5
:1024F00043F04003D3600020704702207047002063
:10250000704700BFF8B5044601680B6923F44052D8
:10251000C36813430B618168036919434369194315
:10252000C36919430068C26822F4164323F00C0300
:102530000B43C36021684B6923F44072A3691343C2
:102540004B61E369B3F5004F61D123685F4A934261
:1025500003D002F5806293422CD1FFF73DFE25683F
:102560000021061841EB010736184F41FB0043EAF2
:102570005673F20016461F466268002392185B41AC
:1025800080197941FDF73AFE514BA3FB0012510926
:10259000642202FB1102D2003232A3FB02235B0948
:1025A0005A0002F4F87202EB011203F0070313441D
:1025B000AB60F8BDFFF700FE25680021061841EB6F
:1025C000010736184F41FB0043EA5673F2001646E6
:1025D0001F466268002392185B4180197941FDF71C
:1025E0000DFE3B4BA3FB00125109642202FB1102BA
:1025F000D2003232A3FB02235B095A0002F4F872C4
:1026000002EB011203F007031344AB60F8BD23682B
:102610002E4A934203D002F5806293422AD1FFF7FB
:10262000DBFD25680021061841EB010736184F41F4
:10263000FB0043EA5673F20016461F4663689A0091
:102640009B0F80197941FDF7D9FD214BA3FB002198
:102650004909642202FB110212013232A3FB022358
:102660005B0903F0F00202EB011103F00F030B44CE
:10267000AB60F8BDFFF7A0FD25680021061841EB0F
:10268000010736184F41FB0043EA5673F200164625
:102690001F4663689A009B0F80197941FDF7AEFDD4
:1026A0000B4BA3FB00214909642202FB110212011A
:1026B0003232A3FB02235B0903F0F00202EB0111AB
:1026C00003F00F030B44AB60F8BD00BF00100140E6
:1026D0001F85EB5168B310B5044690F8393013F0FC
:1026E000FF0F04D1002380F83830FEF709FD2423C2
:1026F00084F839302268D36823F40053D36020462D
:10270000FFF700FF2268136923F4904313612268E6
:10271000536923F02A0353612268D36843F40053BA
:10272000D3600020E063202384F8393084F83A3005
:1027300010BD0120704700BF90F83930DBB2202B6C
:1027400016D1B9B1C2B190F83830012B16D0016260
:102750008284C2840023C363212280F8392080F858
:1027600038300168CA6842F08002CA601846704773
:1027700002207047012070470120704702207047F7
:1027800090F83A30DBB2202B20D109B312B390F885
:102790003830012B20D081628285C2850023C3633B
:1027A000222280F83A2080F838300168CA6842F462
:1027B0008072CA6001684A6942F001024A61016898
:1027C000CA6842F02002CA6018467047022070476B
:1027D000012070470120704702207047704700BFFA
:1027E00008B50168CB6823F04003CB60202380F854
:1027F0003930FFF7F3FF002008BD00BF08B590F89F
:102800003A30DBB2222B44D18368B3F5805F13D119
:10281000826A036943B903685B68C3F308031380E2
:10282000836A0233836218E003685B68DBB213805B
:10283000836A0133836210E0036933B9836A5A1CE7
:102840008262026852681A7007E0826A531C8362CF
:1028500003685B6803F07F031370C38D9BB2013B79
:102860009BB2C385BBB90268D36823F02003D36051
:102870000268D36823F48073D3600268536923F03D
:1028800001035361202380F83A30FDF7C9FF00208F
:1028900008BD022008BD002008BD00BF704700BF72
:1028A00010B5044602681368D168526913F00F002E
:1028B00009D113F0200F06D011F0200F03D02046CD
:1028C000FFF79CFF10BD002865D012F0010202D175
:1028D00011F4907F5FD013F0010F06D011F4807FC8
:1028E00003D0E06B40F00100E06313F0040F04D06C
:1028F0001AB1E06B40F00200E06313F0020F04D065
:102900001AB1E06B40F00400E06313F0080F07D049
:1029100011F0200F00D11AB1E26B42F00802E2631D
:10292000E26B002A4AD013F0200F05D011F0200FDF
:1029300002D02046FFF762FF23685B6903F0400383
:10294000E26B12F0080F00D1FBB12046FFF796FDB5
:1029500023685A6912F0400F13D05A6922F04002DE
:102960005A61636B4BB1164A1A65606BFEF70AFD3C
:1029700020B3606B036D984710BD2046FFF78EFFB4
:1029800010BD2046FFF78AFF10BD2046FFF786FFE7
:102990000023E36310BD13F0800F06D011F0800F09
:1029A00003D02046FFF778FD10BD13F0400F05D08F
:1029B00011F0400F02D02046FFF712FF10BD00BFFC
:1029C000C529000808B5806B0023C385C384FFF7C1
:1029D00065FF08BD00B585B000F0F0030001C0B28E
:1029E00043F00C028DF80C2043F008038DF80D30F5
:1029F00040F00C038DF80E3040F008008DF80F0009
:102A000064230093042303AA4E210348FEF7F0FF3A
:102A100005B05DF804FB00BFE000002000B585B004
:102A200000F0F0030001C0B243F00D028DF80C205D
:102A300043F009038DF80D3040F00D038DF80E3092
:102A400040F009008DF80F0064230093042303AACB
:102A50004E210348FEF7CCFF05B05DF804FB00BF34
:102A6000E000002010B58020FFF7B4FF002403E051
:102A70002020FFF7D3FF0134452CF9DD10BD00BF46
:102A800008B510B1012803D004E041F0800101E055
:102A900041F0C001C8B2FFF79DFF08BD08B5322064
:102AA000FEF7F4FB3020FFF795FF0520FEF7EEFB65
:102AB0003020FFF78FFF0120FEF7E8FB3020FFF703
:102AC00089FF0A20FEF7E2FB2020FFF783FF0A20A0
:102AD000FEF7DCFB2820FFF77DFF0120FEF7D6FB89
:102AE0000820FFF777FF0120FEF7D0FB0120FFF75A
:102AF00071FF0120FEF7CAFB0120FEF7C7FB06208D
:102B0000FFF768FF0120FEF7C1FB0C20FFF762FF13
:102B100008BD00BF10B5044602E00134FFF77EFF98
:102B200020780028F9D110BD014B1868704700BF0C
:102B30007000002070B50E4B0E4CE41AA410002556
:102B40001E46A54204D056F8253098470135F8E7CF
:102B500000F040FC084C094BE41AA41000251E4666
:102B6000A54204D056F8253098470135F8E770BDE6
:102B70005C3500085C350008603500085C350008ED
:102B800002440346934202D003F8011BFAE7704760
:102B90000EB400B59CB04FF402711DABADF814102B
:102BA000029006906FF000410A48049107914FF699
:102BB000FF7153F8042BADF816100068019302A9B9
:102BC00000F064F8029B00221A701CB05DF804EB60
:102BD00003B07047700000202DE9F0478E689E42D8
:102BE00082460C46914698463ED88A8912F4906FE8
:102BF0003AD0256809696F1A6569022305EB450516
:102C000095FBF3F57B1C43449D4238BF1D4653059D
:102C10000FD5294600F03EFB064698B13A46216999
:102C200000F0C4FAA38923F4906343F08003A381E6
:102C300013E02A4600F08CFB064670B92169504625
:102C400000F0DAFA0C23CAF80030A38943F04003FD
:102C5000A3814FF0FF30BDE8F087266165613E44F7
:102C6000ED1B2660A5604646464528BF46463246CF
:102C70004946206800F0A5FAA3689B1BA36023685F
:102C80001E4426600020BDE8F08700002DE9F04FCB
:102C90009DB0804603938B891C060D4616460DD5C4
:102CA0000B695BB9402100F0F5FA2860286118B97A
:102CB0000C23C8F80030CDE040236B61002309935A
:102CC00020238DF82930DFF89CB130238DF82A308D
:102CD00037463C4614F8013B1BB9B7EB060910D048
:102CE00003E0252BF9D02746F3E74B463246294629
:102CF0004046FFF771FF013000F0A780099B4B446D
:102D000009933B78002B00F0A08000234FF0FF32A6
:102D100004930793059206938DF853301A93012676
:102D2000052221784E48FDF7FBFB671C049B38B158
:102D30004B4A801A06FA00F0184304903C46EFE72D
:102D4000D90644BF20228DF853201A0744BF2B22F6
:102D50008DF8532022782A2A03D0079A00210A20CE
:102D60000BE0039A111D12680391002A10DA5242F7
:102D700043F00200079204900BE0274601343B78B1
:102D8000303B092B03D800FB02320121F5E701B1EA
:102D900007923B782E2B1ED17B782A2B0AD1039BDE
:102DA0001A1D1B680392002BB8BF4FF0FF33023788
:102DB000059310E000230593781C19460A24074662
:102DC00001303A78303A092A03D804FB0121012363
:102DD000F5E703B10591032239782248FDF7A0FBFE
:102DE00040B14023CBEB000003FA00F0049B1843F2
:102DF0000490013739781C488DF8281006227E1C73
:102E0000FDF78EFB88B1194B33B9039B073323F0D1
:102E100007030833039314E003AB00932A46144BD3
:102E200004A94046AFF3008007E003AB00932A46B5
:102E30000F4B04A9404600F093F8B0F1FF3F8246E3
:102E400003D0099B5344099342E7AB895B0601D445
:102E5000099801E04FF0FF301DB0BDE8F08F00BFD2
:102E600020350008263500082A350008000000003B
:102E7000D92B00082DE9F04791461F460A698B6857
:102E8000DDF820809342B8BF1346C9F8003091F8AE
:102E9000432006460C4612B10133C9F800302368BE
:102EA000990642BFD9F800300233C9F800302568CE
:102EB00015F0060510D104F1190A07E00123524666
:102EC00039463046C04701301AD00135E368D9F899
:102ED00000209B1A9D42F1DB94F8433022680033B6
:102EE00018BF012392060FD5E1185A1C302081F833
:102EF0004300224494F8451082F84310023303E063
:102F00004FF0FF30BDE8F08704F143023946304608
:102F1000C0470130F4D02268D9F80050E36802F0CD
:102F20000602042A08BF5D1B2269A3680CBF25EABC
:102F3000E57500259342C4BF9B1AED184FF00009B8
:102F40001A344D4509D00123224639463046C04740
:102F50000130D5D009F10109F3E70020BDE8F08781
:102F60002DE9F04317460A7E85B06E2A984606463C
:102F70000C460C9B01F1430E00F0AE8011D8632A81
:102F800022D009D8002A00F0BB80582A40F0CA801D
:102F900081F84520834955E0642A1ED0692A1CD057
:102FA000C0E0732A00F0B08009D86F2A2ED0702AB2
:102FB00040F0B8800A6842F020020A603EE0752ABC
:102FC00024D0782A3AD0ADE01A6801F14205111DEB
:102FD0001960136884F84230A8E021681A6811F07B
:102FE000800F02D0111D196008E011F0400F02F1AE
:102FF0000401196002D0B2F9003000E01368002B20
:103000003CDA2D225B4284F8432037E021681A68BD
:1030100011F0800F02D0111D196007E011F0400F70
:1030200002F10401196001D0138800E01368227EC8
:103030005C496F2A14BF0A2208221BE078225A49F1
:1030400084F845202268186812F0800F00F104050A
:103050001D6003D1550601D5038800E00368D00741
:1030600044BF42F0200222601BB9226822F02002F5
:1030700022601022002084F8430001E049490A221E
:103080006568A560002D08DB206820F00400206042
:103090002BB9002D7DD175460CE0002B79D07546FB
:1030A000B3FBF2F002FB1033CB5C05F8013D0346A5
:1030B0000028F5D1082A0BD12368DA0708D523693F
:1030C00062689A42DEBF302305F8013C05F1FF3506
:1030D000C5EB0E0323612EE008681A68496910F0F9
:1030E000800F03D0101D1860136808E010F0400F27
:1030F00002F104001860136801D0198000E0196023
:1031000000232361754616E01A68111D19601568C1
:10311000626800212846FDF703FA08B1401B606091
:10312000636804E004F1420584F84220012323612E
:10313000002384F84330CDF800803B4603AA2146A3
:103140003046FFF797FE013002D14FF0FF3026E006
:1031500023692A4639463046C0470130F5D02368F6
:103160009B0710D5002504F1190907E001234A4601
:1031700039463046C0470130E7D00135E368039A4D
:103180009B1A9D42F2DBE068039B9842B8BF184649
:1031900005E00B7884F8423004F142058AE705B077
:1031A000BDE8F083313500084235000810B5431EF4
:1031B0000A44914204D011F8014B03F8014FF8E79B
:1031C00010BD884210B501EB020301D8421E0BE08E
:1031D0009842FBD28118D21AD34204D013F8014D81
:1031E00001F8014DF8E710BD994204D011F8014BE8
:1031F00002F8014FF8E710BD38B50546002946D062
:1032000051F8043C0C1F002BB8BFE41800F0D6F8AE
:103210001F4A1368114613B96360146032E0A34279
:103220000ED92268A018834204BF18685B686360E7
:1032300004BF121822600C6024E0A24203D8134697
:103240005A68002AF9D118681918A1420BD12168CF
:10325000014458188242196014D1106852685A60AB
:10326000014419600EE002D90C232B600AE02168AA
:103270006018824204BF10685268626004BF091877
:1032800021605C602846BDE8384000F098B838BD41
:10329000D800002070B5CD1C25F0030508350C2D95
:1032A00038BF0C25002D064601DBA94202D90C23AC
:1032B000336046E000F082F8234B1C681A46214632
:1032C000A1B10B685B1B0ED40B2B03D90B60CC1880
:1032D000CD501EE08C420DBF63684B686360136085
:1032E00018BF0C4615E00C464968E9E7174C2368FF
:1032F0001BB9304600F052F820602946304600F0F5
:103300004DF8431C18D0C41C24F00304A0420DD176
:103310002560304600F053F804F10B00231D20F027
:103320000700C31A0ED05A42E25070BD211A30462F
:1033300000F034F80130EBD10C233360304600F05C
:103340003EF8002070BD00BFD8000020D40000204F
:10335000F8B5074615460E4621B91146BDE8F840B6
:10336000FFF798BF1AB9FFF747FF2846F8BD00F0EE
:1033700027F885420ED929463846FFF78BFF0446C9
:1033800050B131462A46FFF711FF31463846FFF764
:1033900033FF01E03046F8BD2046F8BD38B5064C95
:1033A0000023054608462360FDF734F9431C02D18B
:1033B000236803B12B6038BDF001002070477047CF
:1033C00051F8040C0028BEBF091851F8043CC0187D
:1033D00004387047F8B500BFF8BC08BC9E4670477B
:0C33E000F8B500BFF8BC08BC9E46704762
:1033EC0000000000000000000102030406070809A9
:1033FC0000000000010203040A4275666665722033
:10340C006F766572666C6F772E2052657374657477
:10341C00696E6720627566666F720A006100000053
:10342C006200000063000000640000006500000002
:10343C0066000000670000006800000069000000E2
:10344C006A0000006B0000006C0000006D000000C2
:10345C006E0000006F0000007000000071000000A2
:10346C007200000073000000740000007500000082
:10347C007600000077000000780000007900000062
:10348C007A00000031000000320000003300000020
:10349C00340000003500000036000000370000004A
:1034AC003800000039000000300000002E00000041
:1034BC002C00000027000000220000005F0000002C
:1034CC003A0000003B0000003F000000210000001B
:1034DC002D0000002B0000002F0000002800000031
:1034EC00290000003D000000400000006E6F2073BA
:1034FC0075636820636861720A0000004D6F727317
:10350C0065205472616E736C61746F720000000000
:10351C0020000000232D302B2000686C4C006566C9
:10352C006745464700303132333435363738394108
:10353C00424344454600303132333435363738391E
:08354C00616263646566000022
:08355400D8CCFF7F010000004C
:04355C00C50100089D
:04356000A1010008BD
:10356400010000000024F40001000000100000002D
:103574000000000000000000000000000000000047
:103584000000000000000000000000000000000037
:103594000000000000000000000000000000000027
:1035A4000000000000000000000000000000000017
:1035B4000000000000000000000000000000000007
:1035C40000000000000000000000000000000000F7
:0435D40010000020C3
:04000005080005C129
:00000001FF
